:100000000C949B000C94C3000C94C3000C94C3008C
:100010000C94C3000C94C3000C94C3000C94C30054
:100020000C94C3000C94C3000C94C3000C94C30044
:100030000C94C3000C94C3000C94C3000C94C30034
:100040000C94F2070C94C3000C9462080C943C08C6
:100050000C94C3000C94C3000C94C3000C94C30014
:100060000C94C3000C94C300000000002300260081
:1000700029000D0A2E2E2E5374617274206C6F6F3E
:10008000702E000D0A5374617274204D6F746F727C
:100090002E20576974682073706565643A200009E2
:1000A00053746F70204D6F746F722E000D0A2E2ED8
:1000B0002E4C696D697420586D696E2E000D0A2EE4
:1000C0002E2E4C696D697420586D61782E000D0AD2
:1000D0002E2E2E44697361626C65206472697665A8
:1000E00072732E0000000000240027002A00000088
:1000F0000000250028002B00040404040404040468
:1001000002020202020203030303030301020408C2
:100110001020408001020408102001020408102071
:1001200000000008000201000003040700000000B6
:1001300000000000940811241FBECFEFD8E0DEBFFE
:10014000CDBF11E0A0E0B1E0EEE7F0E202C0059023
:100150000D92A434B107D9F722E0A4E4B1E001C0C4
:100160001D92A933B207E1F710E0CBE9D0E004C05B
:100170002197FE010E94850DCA39D107C9F70E9457
:100180001C090C943D100C9400004F925F926F92EA
:100190007F928F929F92AF92BF92CF92DF92EF9217
:1001A000FF920F931F93CF93DF93C0900502D090DF
:1001B0000602E0900702F0900802809101029091FF
:1001C0000202A0910302B0910402C81AD90AEA0AF5
:1001D000FB0A6091090270910A0280910B029091D2
:1001E0000C029B01AC010E94700F4B015C016091FD
:1001F00011027091120280911302909114029B01DE
:10020000AC010E94A00D9B01AC01C501B4010E948C
:10021000110E0E94830EC114D104E104F10409F00F
:10022000D3C062307105810591050CF0F2C01092C7
:10023000190210921A0210921B0210921C021092C4
:10024000090210920A0210920B0210920C021092F4
:10025000290210922A0210922B0210922C02DF9196
:10026000CF911F910F91FF90EF90DF90CF90BF90B3
:10027000AF909F908F907F906F905F904F90089578
:100280001016110612061306DCF46C157D058E059A
:100290009F0524F42091F7012111BBC09B01AC0103
:1002A00088279927DC01821B930BA40BB50B809345
:1002B000290290932A02A0932B02B0932C02A9C08A
:1002C000011511052105310509F4A3C06C157D0543
:1002D0008E059F050CF09DC08091F701882309F4DD
:1002E00098C030952095109501951F4F2F4F3F4F87
:1002F0000093290210932A0220932B0230932C02A0
:1003000088C0011511052105310509F482C0882432
:10031000992454018C189D08AE08BF08681579050A
:100320008A059B050CF075C08091F701811171C0A1
:10033000D8CFC0903102D0903202E0903302F090DA
:100340003402A7019601C701B6010E94A00D2B013E
:100350003C01C501B4010E94BB0E20E030E040E842
:1003600050E40E94700F20E030E040E85FE30E941C
:10037000A00D9B01AC01C301B2010E94110E9B01B3
:10038000AC01C701B6010E949F0DD62FC72F6C018B
:10039000E0903502F0903602009137021091380259
:1003A0009701A8010E946B0F18161CF4ED2EFC2E6D
:1003B0008601C701D8018093310290933202A09345
:1003C0003302B09334024CC00091290210912A02EA
:1003D00020912B0230912C021C141D041E041F04BA
:1003E0000CF44ECF10161106120613060CF089CF2E
:1003F0000027112798010C191D092E093F096017C4
:100400007107820793070CF049CF2091F701211162
:1004100045CF8090290290902A02A0902B02B090A4
:100420002C0281149104A104B10409F082CF8091BF
:100430002D0290912E02A0912F02B0913002809354
:10044000310290933202A0933302B093340281E0E0
:100450001C141D041E041F040CF080E08093F7019F
:100460003FEF831A930AA30AB30A8092290290925B
:100470002A02A0922B02B0922C02C0903102D0909E
:100480003202E0903302F0903402C701B6010E94BC
:100490008A0E6093190270931A0280931B02909344
:1004A0001C02A701960160E074E284E799E40E94CF
:1004B000110E6093090270930A0280930B029093CD
:1004C0000C022091F7012111CACE905860930902C5
:1004D00070930A0280930B0290930C02C0CE8F920D
:1004E0009F92AF92BF92CF92DF92EF92FF920F93C3
:1004F0001F93CF93DF938B01D82FC92F80900D02CC
:1005000090900E02A0900F02B0901002750164014D
:10051000F7FAF094F7F8F0949B01482F592FC70190
:10052000B6010E946B0F181674F098014D2F5C2FC6
:10053000C501B4010E940C0E7501640187FD03C062
:100540006801ED2EFC2E20E030E0A901C701B601C4
:100550000E940C0E81111DC01092190210921A02F5
:1005600010921B0210921C02C0920902D0920A0241
:10057000E0920B02F0920C02DF91CF911F910F914C
:10058000FF90EF90DF90CF90BF90AF909F908F90B3
:100590000895A701960160E074E284E799E40E945F
:1005A000110E9F770E948A0E6093190270931A02AF
:1005B00080931B0290931C02C1E020E030E0A9016F
:1005C000C701B6010E946B0F18160CF0C0E0C09373
:1005D000F701CACF833081F028F4813099F082305E
:1005E000A9F008958730A9F08830C9F08430B1F4BB
:1005F000809180008F7D03C0809180008F778093F1
:100600008000089584B58F7784BD089584B58F7D6B
:10061000FBCF8091B0008F778093B00008958091D8
:10062000B0008F7DF9CF1F93CF93DF93282F30E059
:10063000F901E05EFE4F8491F901E45FFE4FD49131
:10064000F901E850FF4FC491CC23A9F0162F811176
:100650000E94EA02EC2FF0E0EE0FFF1FE251FF4F85
:10066000A591B4918FB7F894EC91111108C0D09571
:10067000DE23DC938FBFDF91CF911F910895DE2B96
:10068000F8CFCF93DF9390E0FC01E45FFE4F24911D
:1006900088509F4FFC0184918823D1F090E0880F0F
:1006A000991FFC01EC51FF4FA591B491FC01E2515F
:1006B000FF4FC591D491623071F49FB7F8943C918B
:1006C000822F809583238C93E8812E2B28839FBFD4
:1006D000DF91CF9108958FB7F894EC912E2B2C9346
:1006E0008FBFF6CF2FB7F8946091540170915501E8
:1006F00080915601909157012FBF0895AF92BF92FC
:10070000CF92DF92EF92FF920F931F93CF93DF93DD
:100710006C017B018B01040F151FEB015E01AE180C
:10072000BF08C017D10759F06991D601ED91FC912E
:100730000190F081E02DC6010995892B79F7C5015B
:10074000DF91CF911F910F91FF90EF90DF90CF90AD
:10075000BF90AF900895FC01538D448D252F30E05C
:10076000842F90E0821B930B541710F0CF960895BE
:1007700001970895FC01918D828D981761F0A28DEB
:10078000AE0FBF2FB11D5D968C91928D9F5F9F73B1
:10079000928F90E008958FEF9FEF0895FC01918D67
:1007A000828D981731F0828DE80FF11D858D90E0D4
:1007B00008958FEF9FEF0895FC01918D228D892F71
:1007C00090E0805C9F4F821B91098F739927089559
:1007D00088E591E00E94DC0321E0892B09F420E008
:1007E000822F089580E090E0892B29F00E94E80391
:1007F00081110C9400000895FC01A48DA80FB92F5D
:10080000B11DA35ABF4F2C91848D90E001968F7338
:100810009927848FA689B7892C93A089B1898C9157
:10082000837080648C93938D848D981306C00288A6
:10083000F389E02D80818F7D80830895EF92FF9270
:100840000F931F93CF93DF93EC0181E0888F9B8DF3
:100850008C8D98131AC0E889F989808185FF15C0AD
:100860009FB7F894EE89FF896083E889F9898081D0
:100870008370806480839FBF81E090E0DF91CF919F
:100880001F910F91FF90EF900895F62E0B8D10E0C1
:100890000F5F1F4F0F731127E02E8C8D8E110CC030
:1008A0000FB607FCFACFE889F989808185FFF5CF7B
:1008B000CE010E94FC03F1CFEB8DEC0FFD2FF11D5B
:1008C000E35AFF4FF0829FB7F8940B8FEA89FB89B8
:1008D00080818062CFCF0F931F93CF93DF938C01E2
:1008E000D0E0C0E0F801EC0FFD1F6491662341F0F9
:1008F00088E591E00E941E04892B11F02196F2CF29
:10090000CE01DF91CF911F910F910895CF93DF9387
:10091000EC01888D8823B9F0AA89BB89E889F98917
:100920008C9185FD03C0808186FD0DC00FB607FC4C
:10093000F7CF8C9185FFF2CF808185FFEDCFCE017F
:100940000E94FC03E9CFDF91CF910895CF93DF930D
:10095000FC012381222359F1EC0161E084810E9492
:10096000410361E08D810E9441038B81843011F04D
:100970008830B1F461E08E810E94410361E08F8193
:100980000E9441038FA58F3F91F061E00E944103D7
:100990006EA581E068278FA5DF91CF910C9413039A
:1009A000833011F0863071F761E08E81E9CFDF91FD
:1009B000CF910895CF93DF93FC0123812223A9F0E7
:1009C000EC010190F081E02D0480F581E02D60E0E4
:1009D00009958FA58F3F49F061E00E9441036EA504
:1009E0008FA5DF91CF910C941303DF91CF910895E0
:1009F000DC01ED91FC9124813581477055276627F4
:100A00007727415051096109710947305105610546
:100A1000710560F4FA01E15FFA4F0C94850D190538
:100A20001B051D051F0521052305250561E0F901AD
:100A3000099465E0FCCF64E0FACF66E0F8CF62E0AD
:100A4000F6CF6AE0F4CF68E0F2CF69E0F0CFCF9361
:100A5000DF93EC01CB01BA0126E030E040E050E04A
:100A60000E94660D623071058105910589F16CF473
:100A70006115710581059105D1F061307105810520
:100A80009105F9F0DF91CF910895643071058105EA
:100A9000910561F124F1653071058105910591F7AA
:100AA000E881F9810480F581E02D66E006C0E881E7
:100AB000F9810480F581E02D64E0CE01DF91CF91D2
:100AC0000994E881F9810480F581E02D65E0F5CF96
:100AD000E881F9810480F581E02D61E0EECFE881C5
:100AE000F9810480F581E02D63E0E7CFE881F981A9
:100AF0000480F581E02D62E0E0CFDC01ED91FC9116
:100B00000480F581E02D4370552766277727423012
:100B100051056105710571F043305105610571059D
:100B200059F0413051056105710511F065E00994F6
:100B300066E0FDCF6AE0FBCF69E0F9CFCF93DF93AA
:100B4000EC01CB01BA0123E030E040E050E00E942C
:100B5000660D613071058105910599F0623071056E
:100B600081059105A9F0672B682B692BC1F4E881F9
:100B7000F9810480F581E02D64E0CE01DF91CF9111
:100B80000994E881F9810480F581E02D61E0F5CFD9
:100B9000E881F9810480F581E02D62E0EECFDF91FC
:100BA000CF910895DC01ED91FC910480F581E02D59
:100BB0004370552766277727423051056105710537
:100BC00071F0433051056105710559F0413051050F
:100BD0006105710511F062E0099463E0FDCF61E009
:100BE000FBCF60E0F9CFCF93DF93EC01E881F9818F
:100BF0000480F581E02D8A8160E0811162E0CE0100
:100C00000995E881F9810480F581E02D8A8161E010
:100C1000811163E0CE0109958CA59DA582309105D7
:100C200038F0880F991F880F991F05970197F1F7E2
:100C3000E881F9810480F581E02D8A8160E08111ED
:100C400062E0CE01DF91CF910994CF93DF93EC0165
:100C500020E030E0A9016C897D898E899F890E94FE
:100C60006B0F18162CF4E8A9F9A9DF91CF9109941C
:100C7000EAA9FBA9FACFCF92DF92EF92FF920F93EE
:100C80001F93CF93DF93DC011396CC91C43039F0DE
:100C9000C83059F1C33019F0C63049F1C2E08C01B7
:100CA0000C5F1F4FF12CE12CC62ED12CD1E0F801A6
:100CB0006481C6010E2C02C0959587950A94E2F7CF
:100CC00080FD6D270F5F1F4F80810E941303BFEFD0
:100CD000EB1AFB0AEC1658F3DF91CF911F910F919D
:100CE000FF90EF90DF90CF900895C4E0D8CFC3E09D
:100CF000D6CFDC011396EC911397E93008F038C099
:100D0000F0E0EB57F94F0C94850D8E0694069A0689
:100D1000A006A606B806AC06B806B206ED91FC9190
:100D20000084F185E02D0994ED91FC910284F38516
:100D3000E02DF9CFED91FC910484F585E02DF3CF02
:100D4000ED91FC910684F785E02DEDCFED91FC91BE
:100D50000088F189E02DE7CFED91FC910288F389BD
:100D6000E02DE1CFED91FC910488F589E02DDBCFFA
:100D70000895CF93C82F843138F461E00E94410375
:100D800060E08C2F0E94130362E08C2FCF910C94B3
:100D900041034F925F926F927F928F929F92AF9298
:100DA000BF92CF92DF92EF92FF926B017C0120E025
:100DB00030E0A9010E940C0E87FF04C0F7FAF094FE
:100DC000F7F8F0948090110290901202A090130214
:100DD000B0901402A7019601C501B4010E940C0E47
:100DE000882309F456C06091290270912A028091EB
:100DF0002B0290912C020E94BB0E2B013C01A701FB
:100E00009601C501B4010E94110E9B01AC01C30102
:100E1000B2010E94700F0E94830E609329027093AA
:100E20002A0280932B0290932C02A701960160E086
:100E300070E080E090E40E94110E0E94E30F26E52E
:100E40003EE04DE25FE30E94700F20E034E244E7B1
:100E500059E40E94700F60932D0270932E028093CC
:100E60002F0290933002C0921102D0921202E092AF
:100E70001302F0921402FF90EF90DF90CF90BF909A
:100E8000AF909F908F907F906F905F904F900C9459
:100E9000C500FF90EF90DF90CF90BF90AF909F90F4
:100EA0008F907F906F905F904F900895FC0101901C
:100EB0000020E9F73197AF01481B590BBC0188E5C9
:100EC00091E00C947E038F929F92AF92BF920F930A
:100ED0001F93CF93DF93CDB7DEB7A1970FB6F894EA
:100EE000DEBF0FBECDBF19A2423008F44AE08E012A
:100EF0000F5D1F4F842E912CB12CA12CA5019401C4
:100F00000E94440DE62FB901CA01EA30F4F4E05D15
:100F1000D801EE938D01232B242B252B79F790E01C
:100F200080E0109719F0CD010E945607A1960FB6E8
:100F3000F894DEBF0FBECDBFDF91CF911F910F910F
:100F4000BF90AF909F908F900895E95CE1CF0F9391
:100F50001F93CF93DF93EB018431C8F08E508064F0
:100F600080937C0080917A00806480937A008091E5
:100F70007A0086FDFCCF8091780020917900322F95
:100F8000282F81E02F3E32400CF580E01FC0282F33
:100F900030E0F901E05EFE4F8491F901E45FFE4F1D
:100FA0000491F901E850FF4F1491112371F381115D
:100FB0000E94EA02E12FF0E0EE0FFF1FE859FF4F19
:100FC000A591B491EC910E2381E0F9F298819817E4
:100FD00039F0888381E0DF91CF911F910F910895BF
:100FE00080E0F9CF1F920F920FB60F9211242F932A
:100FF0003F938F939F93AF93BF93809154019091B0
:101000005501A0915601B09157013091530123E051
:10101000230F2D3758F50196A11DB11D20935301C3
:101020008093540190935501A0935601B0935701BA
:1010300080914F0190915001A0915101B0915201C6
:101040000196A11DB11D80934F0190935001A09373
:101050005101B0935201BF91AF919F918F913F91F8
:101060002F910F900FBE0F901F90189526E8230F19
:101070000296A11DB11DD2CF1F920F920FB60F92F3
:1010800011242F933F934F935F936F937F938F938D
:101090009F93AF93BF93EF93FF9388E591E00E94F6
:1010A000FC03FF91EF91BF91AF919F918F917F9141
:1010B0006F915F914F913F912F910F900FBE0F90C5
:1010C0001F9018951F920F920FB60F9211242F9315
:1010D0008F939F93EF93FF93E0916801F0916901E3
:1010E0008081E0916E01F0916F0182FD1BC09081C3
:1010F000809171018F5F8F7320917201821741F08F
:10110000E0917101F0E0E85AFE4F958F80937101F4
:10111000FF91EF919F918F912F910F900FBE0F90A4
:101120001F9018958081F4CFE8E5F1E013821282D8
:1011300088EE93E0A0E0B0E084839583A683B78334
:101140008FE091E09183808385EC90E095878487A0
:1011500084EC90E09787868780EC90E0918B808B81
:1011600081EC90E0938B828B82EC90E0958B848B6A
:1011700086EC90E0978B868B118E128E138E148ED8
:10118000E5EFF1E081E291E09183808381E0838368
:101190001486158616861786108A118A128A138A73
:1011A000148A158A168A178A80E090E0A0E8BFE3C7
:1011B000808F918FA28FB38F148E158E168E178EFF
:1011C00080A391A3A2A3B3A314A215A216A217A24F
:1011D00021E030E035A724A72FEF27A710A611A6FE
:1011E00012A613A622E0248325E0258334E036836B
:1011F000278316A614AA15AA16AA17AA10AE11AE0E
:1012000012AE13AE14AE15AE16AE17AE8093350205
:1012100090933602A0933702B09338021282108660
:10122000118612861386CF010E94A60460E070E04A
:1012300080E89FE30C94C906CF93DF9300D000D0E1
:10124000CDB7DEB7789484B5826084BD84B5816003
:1012500084BD85B5826085BD85B5816085BD809181
:101260006E00816080936E001092810080918100F9
:1012700082608093810080918100816080938100F1
:10128000809180008160809380008091B1008460B3
:101290008093B1008091B00081608093B000809114
:1012A0007A00846080937A0080917A0082608093D3
:1012B0007A0080917A00816080937A0080917A0030
:1012C000806880937A001092C100E0916801F091EB
:1012D000690182E08083E0916401F09165011082F0
:1012E000E0916601F09167018FEC808310927001AC
:1012F000E0916C01F0916D0186E08083E0916A01DC
:10130000F0916B01808180618083E0916A01F091AE
:101310006B01808188608083E0916A01F0916B01AC
:10132000808180688083E0916A01F0916B01808107
:101330008F7D808385E10E94B90684E10E94B90611
:1013400080E10E94B9068FE00E94B9068EE00E94FB
:10135000B90688E08093240261E00E944103609115
:10136000230281E06827809124020E94130360E039
:1013700070E088E792E40E94C90620E030E04AE786
:1013800053E460910D0270910E0280910F029091D2
:1013900010020E940C0E882309F451C080E090E0F6
:1013A000AAE7B3E480930D0290930E02A0930F027C
:1013B000B093100280E090E0AAE7B5E48093350294
:1013C00090933602A0933702B0933802809129029D
:1013D00090912A02A0912B02B0912C0218161906A6
:1013E0001A061B0664F56091090270910A02809149
:1013F0000B0290910C029B01AC010E94700F6B01DB
:101400007C016091110270911202809113029091FF
:1014100014029B01AC010E94A00D9B01AC01C7010D
:10142000B6010E94110E0E94830E609329027093F0
:101430002A0280932B0290932C020E94C50020E088
:1014400030E0A9016091090270910A0280910B02BB
:1014500090910C020E940C0E882329F060E070E04D
:10146000CB010E946F0282E790E00E946B0434EC93
:10147000232E39E0332E0CE316EF80910A018823E6
:1014800009F1809109018823E9F00E947203C0905C
:101490000501D0900601E0900701F0900801C61602
:1014A000D706E806F90670F48EEC90E00E946B0413
:1014B00085EF91E00E94DA041092090110924E012A
:1014C00010924D010E947203C0904901D0904A01D0
:1014D000E0904B01F0904C01C616D706E806F906DD
:1014E00008F001C164E071E084E10E94A707F82ED2
:1014F000882341F0809104018111C3C18DEB90E0FC
:101500000E946B0463E071E085E10E94A707E82E6A
:10151000882349F080910301811105C08CEA90E095
:101520000E946B04FE2C62E071E080E10E94A7073C
:10153000E82E882341F0809102018111A4C110930B
:101540004E0100934D0161E071E08FE00E94A7071A
:10155000882349F090910101911198C130924E0178
:1015600020924D01E82E60E071E08EE00E94A70716
:10157000FF2009F492C180910A01811197C08090E7
:10158000090290900A02A0900B02B0900C0220E099
:1015900030E0A901C501B4010E940C0E882309F4B2
:1015A00058C0A5019401C501B4010E94700F6B01E0
:1015B0007C0160911102709112028091130290914E
:1015C00014029B01AC010E94A00D9B01AC01C7015C
:1015D000B6010E94110E0E94830E6B017C014090A7
:1015E0000102509002026090030270900402809108
:1015F000050290910602A0910702B091080289832A
:101600009A83AB83BC8320E030E0A901C501B4011B
:101610000E946B0F18160CF03BC19FEFC91AD90A34
:10162000E90AF90AC40CD51CE61CF71C89819A81C9
:10163000AB81BC81C816D906EA06FB0651F0C09200
:101640000502D0920602E0920702F09208020E9480
:10165000C50020E030E0A9016091090270910A0202
:1016600080910B0290910C020E940C0E882329F0AD
:1016700060E070E0CB010E946F0291E090930A015C
:101680000E947203605D7A488F4F9F4F60930501FF
:1016900070930601809307019093080110924E0108
:1016A00010924D018FE990E00E946B040E9472033A
:1016B000AB01BC0180910A01A4E6A89FC0011124DE
:1016C000092E000CAA0BBB0B0A96A11DB11D840F9D
:1016D000951FA61FB71F8093490190934A01A093BD
:1016E0004B01B0934C010E947203C0904501D09011
:1016F0004601E0904701F0904801C616D706E8067B
:10170000F906D0F5F0904401B1E0FB26F0924401D7
:101710006F2D8DE00E9413030E947203AB01BC0188
:1017200020910A01E8EEF3E02E9FC0012F9F900D5B
:101730001124092E000CAA0BBB0B88519C4FAF4FF4
:10174000BF4F24E833E0F29E6001F39ED00C1124D9
:101750000D2C000CEE08FF088C199D09AE09BF097D
:10176000840F951FA61FB71F8093450190934601D4
:10177000A0934701B09348018091190290911A02F9
:10178000A0911B02B0911C02892B8A2B8B2B09F490
:101790006BC09FB7F894C0904F01D0905001E0907B
:1017A0005101F090520186B5A89B07C08F3F29F0E8
:1017B0003FEFC31AD30AE30AF30A9FBFFE2CED2CB6
:1017C000DC2CCC24C80ED11CE11CF11C22E0CC0C7A
:1017D000DD1CEE1CFF1C2A95D1F780911D02909113
:1017E0001E02A0911F02B0912002B701A601481B62
:1017F000590B6A0B7B0B8091190290911A02A091F0
:101800001B02B0911C02481759076A077B0760F159
:101810008091010290910202A0910302B091040212
:101820002091F701222309F417C10196A11DB11DD2
:101830008093010290930202A0930302B0930402EA
:1018400040910102509102026091030270910402E2
:1018500085EF91E00E947906C0921D02D0921E028F
:10186000E0921F02F092200280E090E0892B09F4C0
:1018700004CE0E94E803882309F4FFCD0E940000F3
:10188000FCCDF12C3FCEFE2CE12C5DCEF82E6BCEA4
:10189000C094D094E094F094C5CEEE2009F406CF25
:1018A00080914D0190914E016AE070E00E94300DF0
:1018B000072E000C880B990B0E94BB0E6B017C015C
:1018C0002091090230910A0240910B0250910C02C2
:1018D0000E940C0E882309F4E9CEC701B6010E94CC
:1018E0006F0210920A01A1E0A09309018FEF9FEF10
:1018F000DC018093050190930601A0930701B0934A
:10190000080183E890E00E946B04C0900902D09027
:101910000A02E0900B02F0900C02A7019601C701A9
:10192000B6010E942310882329F087E391E00E94EA
:101930005607BCCE46015701E894B7F82FEF3FEFAA
:101940004FE75FE7C501B4010E94231081110DC06C
:101950002FEF3FEF4FE75FE7C501B4010E940C0E88
:1019600018161CF48BE391E0E2CF2FEF3FEF4FE727
:101970005FE4C701B6010E946B0F18161CF48FE3D9
:1019800091E0D5CF2FEF3FEF4FE75FECC701B601F6
:101990000E940C0E87FDF3CF20E030E0A901C701C3
:1019A000B6010E940C0E87FF09C06DE288E591E048
:1019B0000E941E04F7FAF094F7F8F0942AE037ED4D
:1019C00043EA5BE3C701B6010E94A00D4B015C0135
:1019D0000E948A0E6B017C010E94B90E9B01AC0132
:1019E000C501B4010E949F0D4B015C014AE0C70193
:1019F000B6010E9463076EE288E591E00E941E0432
:101A000020E030E040E251E4C501B4010E94700FD3
:101A10004B015C010E948A0E6B01F12CE12C4AE023
:101A2000C701B6010E946307C701B6010E94B90E43
:101A30009B01AC01C501B4010E949F0D20E030E084
:101A400040E251E40E94700F0E948A0E90E080E014
:101A50004AE00E9463072ACE0197A109B109E8CEA6
:101A600097FB072E16F4009407D077FD09D00E944B
:101A70008B0D07FC05D03EF4909581959F4F0895FE
:101A8000709561957F4F0895A1E21A2EAA1BBB1B8A
:101A9000FD010DC0AA1FBB1FEE1FFF1FA217B3073A
:101AA000E407F50720F0A21BB30BE40BF50B661F50
:101AB000771F881F991F1A9469F760957095809514
:101AC00090959B01AC01BD01CF010895052E97FBB8
:101AD0001EF400940E947D0D57FD07D00E94440D16
:101AE00007FC03D04EF40C947D0D50954095309535
:101AF00021953F4F4F4F5F4F08959095809570957A
:101B000061957F4F8F4F9F4F0895EE0FFF1F0590F8
:101B1000F491E02D0994AA1BBB1B51E107C0AA1F39
:101B2000BB1FA617B70710F0A61BB70B881F991F7E
:101B30005A95A9F780959095BC01CD01089550580C
:101B4000BB27AA270E94B70D0C94310F0E94230FC8
:101B500038F00E942A0F20F039F49F3F19F426F440
:101B60000C94200F0EF4E095E7FB0C941A0FE92F6C
:101B70000E94420F58F3BA1762077307840795074C
:101B800020F079F4A6F50C94640F0EF4E0950B2E7A
:101B9000BA2FA02D0B01B90190010C01CA01A001BF
:101BA0001124FF27591B99F0593F50F4503E68F11A
:101BB0001A16F040A22F232F342F4427585FF3CF5B
:101BC000469537952795A795F0405395C9F77EF42C
:101BD0001F16BA0B620B730B840BBAF09150A1F075
:101BE000FF0FBB1F661F771F881FC2F70EC0BA0FFB
:101BF000621F731F841F48F4879577956795B79583
:101C0000F7959E3F08F0B0CF9395880F08F099277D
:101C1000EE0F9795879508950E94F60E08F481E0DF
:101C200008950E94250E0C94310F0E942A0F58F03F
:101C30000E94230F40F029F45F3F29F00C941A0F03
:101C400051110C94650F0C94200F0E94420F68F301
:101C50009923B1F3552391F3951B550BBB27AA2765
:101C600062177307840738F09F5F5F4F220F331F9F
:101C7000441FAA1FA9F335D00E2E3AF0E0E832D067
:101C800091505040E695001CCAF72BD0FE2F29D06A
:101C9000660F771F881FBB1F261737074807AB073C
:101CA000B0E809F0BB0B802DBF01FF2793585F4FB1
:101CB0003AF09E3F510578F00C941A0F0C94650F82
:101CC0005F3FE4F3983ED4F3869577956795B79593
:101CD000F7959F5FC9F7880F911D9695879597F99E
:101CE0000895E1E0660F771F881FBB1F6217730717
:101CF0008407BA0720F0621B730B840BBA0BEE1F2C
:101D000088F7E09508950E948A0E6894B1110C94AA
:101D1000650F08950E944A0F88F09F5798F0B92FD9
:101D20009927B751B0F0E1F0660F771F881F991F10
:101D30001AF0BA95C9F714C0B13091F00E94640F3F
:101D4000B1E008950C94640F672F782F8827B85F4F
:101D500039F0B93FCCF3869577956795B395D9F768
:101D60003EF490958095709561957F4F8F4F9F4F72
:101D70000895E89409C097FB3EF49095809570957E
:101D800061957F4F8F4F9F4F9923A9F0F92F96E9C7
:101D9000BB279395F695879577956795B795F1113C
:101DA000F8CFFAF4BB0F11F460FF1BC06F5F7F4FD9
:101DB0008F4F9F4F16C0882311F096E911C07723EB
:101DC00021F09EE8872F762F05C0662371F096E8F4
:101DD000862F70E060E02AF09A95660F771F881FC3
:101DE000DAF7880F9695879597F90895990F000867
:101DF000550FAA0BE0E8FEEF16161706E807F907DD
:101E0000C0F012161306E407F50798F0621B730B77
:101E1000840B950B39F40A2661F0232B242B252BF8
:101E200021F408950A2609F4A140A6958FEF811D9B
:101E3000811D089597F99F6780E870E060E008953C
:101E40009FEF80EC089500240A94161617061806D2
:101E50000906089500240A941216130614060506AE
:101E60000895092E0394000C11F4882352F0BB0F3F
:101E700040F4BF2B11F460FF04C06F5F7F4F8F4FA2
:101E80009F4F089557FD9058440F551F59F05F3FDD
:101E900071F04795880F97FB991F61F09F3F79F08C
:101EA00087950895121613061406551FF2CF46950E
:101EB000F1DF08C0161617061806991FF1CF869590
:101EC0007105610508940895E894BB276627772774
:101ED000CB0197F908950E94F60E08F48FEF08954C
:101EE0000E94830F0C94310F0E94230F38F00E9440
:101EF0002A0F20F0952311F00C941A0F0C94200F48
:101F000011240C94650F0E94420F70F3959FC1F34A
:101F1000950F50E0551F629FF001729FBB27F00D97
:101F2000B11D639FAA27F00DB11DAA1F649F6627EC
:101F3000B00DA11D661F829F2227B00DA11D621F3B
:101F4000739FB00DA11D621F839FA00D611D221FF5
:101F5000749F3327A00D611D231F849F600D211DD9
:101F6000822F762F6A2F11249F5750409AF0F1F05C
:101F700088234AF0EE0FFF1FBB1F661F771F881FC5
:101F800091505040A9F79E3F510580F00C941A0FD4
:101F90000C94650F5F3FE4F3983ED4F386957795F4
:101FA0006795B795F795E7959F5FC1F7FE2B880F6B
:101FB000911D9695879597F9089519F416F40C9448
:101FC000200F0C9428100E944A0FB8F39923C9F3EC
:101FD000B6F39F57550B87FF0E9436100024A0E6EA
:101FE00040EA900180585695979528F4805C660FDA
:101FF000771F881F20F026173707480730F4621B29
:10200000730B840B202931294A2BA695179407942A
:10201000202531254A2758F7660F771F881F20F0A3
:1020200026173707480730F4620B730B840B200D1B
:10203000311D411DA09581F7B901842F9158880F5A
:102040009695879508950E94F60E880B990B089532
:102050009F3F31F0915020F4879577956795B7951C
:10206000880F911D9695879597F908959150504046
:0E207000660F771F881FD2F70895F894FFCFF0
:10207E000101010101307500000101000000001E88
:10208E00047E03AB038604DC03BA03CE0300000018
:10209E0000DA04A6043B0679062506F305D2059E52
:1020AE00057D052705F8046E616E00696E66006F8A
:0420BE007666000042
:00000001FF
